{
    "contractName": "Partenariat",
    "abi": [
        {
            "inputs": [
                {
                    "internalType": "string[]",
                    "name": "_partenaires",
                    "type": "string[]"
                },
                {
                    "internalType": "string[]",
                    "name": "_formations_requises",
                    "type": "string[]"
                },
                {
                    "internalType": "string",
                    "name": "_formation_aboutissante",
                    "type": "string"
                },
                {
                    "internalType": "string[]",
                    "name": "_partenaires_name",
                    "type": "string[]"
                },
                {
                    "internalType": "string[]",
                    "name": "_formations_requises_name",
                    "type": "string[]"
                },
                {
                    "internalType": "string",
                    "name": "_formation_aboutissante_name",
                    "type": "string"
                },
                {
                    "internalType": "uint256",
                    "name": "_price",
                    "type": "uint256"
                }
            ],
            "stateMutability": "nonpayable",
            "type": "constructor"
        },
        {
            "anonymous": false,
            "inputs": [
                {
                    "indexed": false,
                    "internalType": "string[]",
                    "name": "Partenaires",
                    "type": "string[]"
                },
                {
                    "indexed": false,
                    "internalType": "string[]",
                    "name": "FormationsRequises",
                    "type": "string[]"
                },
                {
                    "indexed": false,
                    "internalType": "string",
                    "name": "FormationAboutissante",
                    "type": "string"
                }
            ],
            "name": "EventPartenariat",
            "type": "event"
        },
        {
            "inputs": [
                {
                    "internalType": "string[]",
                    "name": "_partenaires",
                    "type": "string[]"
                },
                {
                    "internalType": "string[]",
                    "name": "_formations_requises",
                    "type": "string[]"
                }
            ],
            "name": "check",
            "outputs": [
                {
                    "internalType": "string",
                    "name": "",
                    "type": "string"
                }
            ],
            "stateMutability": "view",
            "type": "function"
        }
    ],
    "bytecode": "60806040523480156200001157600080fd5b5060405162000ca938038062000ca9833981016040819052620000349162000323565b8651620000499060009060208a0190620000bf565b5085516200005f906001906020890190620000bf565b5060026200006e8682620004c4565b5060038190556040517f218243c5642ecdd58a63d29aed17503f20c11ff8eb9e85999c1cce6e86dadc5790620000aa908690869086906200061a565b60405180910390a15050505050505062000663565b8280548282559060005260206000209081019282156200010a579160200282015b828111156200010a5782518290620000f99082620004c4565b5091602001919060010190620000e0565b50620001189291506200011c565b5090565b80821115620001185760006200013382826200013d565b506001016200011c565b5080546200014b9062000435565b6000825580601f106200015c575050565b601f0160209004906000526020600020908101906200017c91906200017f565b50565b5b8082111562000118576000815560010162000180565b634e487b7160e01b600052604160045260246000fd5b604051601f8201601f191681016001600160401b0381118282101715620001d757620001d762000196565b604052919050565b60005b83811015620001fc578181015183820152602001620001e2565b50506000910152565b600082601f8301126200021757600080fd5b81516001600160401b0381111562000233576200023362000196565b62000248601f8201601f1916602001620001ac565b8181528460208386010111156200025e57600080fd5b62000271826020830160208701620001df565b949350505050565b600082601f8301126200028b57600080fd5b815160206001600160401b0380831115620002aa57620002aa62000196565b8260051b620002bb838201620001ac565b9384528581018301938381019088861115620002d657600080fd5b84880192505b858310156200031757825184811115620002f65760008081fd5b620003068a87838c010162000205565b8352509184019190840190620002dc565b98975050505050505050565b600080600080600080600060e0888a0312156200033f57600080fd5b87516001600160401b03808211156200035757600080fd5b620003658b838c0162000279565b985060208a01519150808211156200037c57600080fd5b6200038a8b838c0162000279565b975060408a0151915080821115620003a157600080fd5b620003af8b838c0162000205565b965060608a0151915080821115620003c657600080fd5b620003d48b838c0162000279565b955060808a0151915080821115620003eb57600080fd5b620003f98b838c0162000279565b945060a08a01519150808211156200041057600080fd5b506200041f8a828b0162000205565b92505060c0880151905092959891949750929550565b600181811c908216806200044a57607f821691505b6020821081036200046b57634e487b7160e01b600052602260045260246000fd5b50919050565b601f821115620004bf57600081815260208120601f850160051c810160208610156200049a5750805b601f850160051c820191505b81811015620004bb57828155600101620004a6565b5050505b505050565b81516001600160401b03811115620004e057620004e062000196565b620004f881620004f1845462000435565b8462000471565b602080601f831160018114620005305760008415620005175750858301515b600019600386901b1c1916600185901b178555620004bb565b600085815260208120601f198616915b82811015620005615788860151825594840194600190910190840162000540565b5085821015620005805787850151600019600388901b60f8161c191681555b5050505050600190811b01905550565b60008151808452620005aa816020860160208601620001df565b601f01601f19169290920160200192915050565b600082825180855260208086019550808260051b84010181860160005b848110156200060d57601f19868403018952620005fa83835162000590565b98840198925090830190600101620005db565b5090979650505050505050565b6060815260006200062f6060830186620005be565b8281036020840152620006438186620005be565b9050828103604084015262000659818562000590565b9695505050505050565b61063680620006736000396000f3fe608060405234801561001057600080fd5b506004361061002b5760003560e01c8063c6fbfdfe14610030575b600080fd5b61004361003e3660046104b2565b610059565b604051610050919061053a565b60405180910390f35b81516000546060916001910361015f5760005b6000548110156101595761013e6000828154811061008c5761008c61056d565b9060005260206000200180546100a190610583565b80601f01602080910402602001604051908101604052809291908181526020018280546100cd90610583565b801561011a5780601f106100ef5761010080835404028352916020019161011a565b820191906000526020600020905b8154815290600101906020018083116100fd57829003601f168201915b50505050508683815181106101315761013161056d565b6020026020010151610311565b61014757600091505b80610151816105bd565b91505061006c565b50610163565b5060005b80156102605782516001540361025c5760005b6001548110156102565761023b600182815481106101965761019661056d565b9060005260206000200180546101ab90610583565b80601f01602080910402602001604051908101604052809291908181526020018280546101d790610583565b80156102245780601f106101f957610100808354040283529160200191610224565b820191906000526020600020905b81548152906001019060200180831161020757829003601f168201915b50505050508583815181106101315761013161056d565b61024457600091505b8061024e816105bd565b915050610176565b50610260565b5060005b80156102f9576002805461027390610583565b80601f016020809104026020016040519081016040528092919081815260200182805461029f90610583565b80156102ec5780601f106102c1576101008083540402835291602001916102ec565b820191906000526020600020905b8154815290600101906020018083116102cf57829003601f168201915b505050505091505061030b565b50506040805160208101909152600081525b92915050565b60008160405160200161032491906105e4565b604051602081830303815290604052805190602001208360405160200161034b91906105e4565b604051602081830303815290604052805190602001200361036e5750600161030b565b50600061030b565b634e487b7160e01b600052604160045260246000fd5b604051601f8201601f1916810167ffffffffffffffff811182821017156103b5576103b5610376565b604052919050565b6000601f83818401126103cf57600080fd5b8235602067ffffffffffffffff808311156103ec576103ec610376565b8260051b6103fb83820161038c565b938452868101830193838101908986111561041557600080fd5b84890192505b858310156104a5578235848111156104335760008081fd5b8901603f81018b136104455760008081fd5b8581013560408682111561045b5761045b610376565b61046c828b01601f1916890161038c565b8281528d828486010111156104815760008081fd5b828285018a830137600092810189019290925250835250918401919084019061041b565b9998505050505050505050565b600080604083850312156104c557600080fd5b823567ffffffffffffffff808211156104dd57600080fd5b6104e9868387016103bd565b935060208501359150808211156104ff57600080fd5b5061050c858286016103bd565b9150509250929050565b60005b83811015610531578181015183820152602001610519565b50506000910152565b6020815260008251806020840152610559816040850160208701610516565b601f01601f19169190910160400192915050565b634e487b7160e01b600052603260045260246000fd5b600181811c9082168061059757607f821691505b6020821081036105b757634e487b7160e01b600052602260045260246000fd5b50919050565b6000600182016105dd57634e487b7160e01b600052601160045260246000fd5b5060010190565b600082516105f6818460208701610516565b919091019291505056fea26469706673582212201541b41e73e83507de987fa2ebd2ccfa5822649c9e3356971a54fcdf1a690d1e64736f6c63430008110033",
    "sourcePath": "/Users/naim/Code/diplomy/web3/contracts/Partenariat.sol",
    "compiler": {
        "name": "solc",
        "version": "0.8.17+commit.8df45f5f"
    },
    "functionHashes": {
        "check(string[],string[])": "c6fbfdfe"
    },
    "gasEstimates": {
        "creation": {
            "codeDepositCost": "318000",
            "executionCost": "infinite",
            "totalCost": "infinite"
        },
        "external": {
            "check(string[],string[])": "infinite"
        },
        "internal": {
            "comparingString(string memory,string memory)": "infinite"
        }
    }
}