{
  "contractName": "Certification",
  "abi": [
    {
      "inputs": [
        {
          "internalType": "uint256",
          "name": "_price",
          "type": "uint256"
        }
      ],
      "stateMutability": "nonpayable",
      "type": "constructor"
    },
    {
      "anonymous": false,
      "inputs": [
        {
          "indexed": false,
          "internalType": "string",
          "name": "Nom",
          "type": "string"
        },
        {
          "indexed": false,
          "internalType": "string",
          "name": "Prenom",
          "type": "string"
        },
        {
          "indexed": false,
          "internalType": "string",
          "name": "Intitule",
          "type": "string"
        },
        {
          "indexed": false,
          "internalType": "string",
          "name": "Version",
          "type": "string"
        },
        {
          "indexed": false,
          "internalType": "string",
          "name": "EtablissementHash",
          "type": "string"
        },
        {
          "indexed": false,
          "internalType": "string",
          "name": "DocumentHash",
          "type": "string"
        },
        {
          "indexed": false,
          "internalType": "string",
          "name": "Expiration",
          "type": "string"
        },
        {
          "indexed": false,
          "internalType": "string",
          "name": "Type",
          "type": "string"
        },
        {
          "indexed": false,
          "internalType": "address",
          "name": "Signataire",
          "type": "address"
        }
      ],
      "name": "EventCertification",
      "type": "event"
    },
    {
      "inputs": [],
      "name": "owner",
      "outputs": [
        {
          "internalType": "address",
          "name": "",
          "type": "address"
        }
      ],
      "stateMutability": "view",
      "type": "function",
      "constant": true
    },
    {
      "inputs": [],
      "name": "price",
      "outputs": [
        {
          "internalType": "uint256",
          "name": "",
          "type": "uint256"
        }
      ],
      "stateMutability": "view",
      "type": "function",
      "constant": true
    },
    {
      "inputs": [
        {
          "internalType": "uint256",
          "name": "_price",
          "type": "uint256"
        }
      ],
      "name": "ChangePrice",
      "outputs": [],
      "stateMutability": "nonpayable",
      "type": "function"
    },
    {
      "inputs": [
        {
          "internalType": "string",
          "name": "_intitule",
          "type": "string"
        },
        {
          "internalType": "string",
          "name": "_documentHash",
          "type": "string"
        },
        {
          "internalType": "string",
          "name": "_nom",
          "type": "string"
        },
        {
          "internalType": "string",
          "name": "_etablissementHash",
          "type": "string"
        },
        {
          "internalType": "string",
          "name": "_prenom",
          "type": "string"
        },
        {
          "internalType": "string",
          "name": "_version",
          "type": "string"
        },
        {
          "internalType": "string",
          "name": "_expiration",
          "type": "string"
        },
        {
          "internalType": "string",
          "name": "_diplomeType",
          "type": "string"
        },
        {
          "internalType": "address",
          "name": "_signataire",
          "type": "address"
        }
      ],
      "name": "NouveauDiplome",
      "outputs": [],
      "stateMutability": "payable",
      "type": "function",
      "payable": true
    }
  ],
  "bytecode": "0x608060405234801561001057600080fd5b50604051610aa0380380610aa0833981810160405281019061003291906100ba565b336000806101000a81548173ffffffffffffffffffffffffffffffffffffffff021916908373ffffffffffffffffffffffffffffffffffffffff16021790555080600181905550506100e7565b600080fd5b6000819050919050565b61009781610084565b81146100a257600080fd5b50565b6000815190506100b48161008e565b92915050565b6000602082840312156100d0576100cf61007f565b5b60006100de848285016100a5565b91505092915050565b6109aa806100f66000396000f3fe60806040526004361061003f5760003560e01c80633b22b2d3146100445780638da5cb5b14610060578063a035b1fe1461008b578063fb92488b146100b6575b600080fd5b61005e6004803603810190610059919061048b565b6100df565b005b34801561006c57600080fd5b50610075610211565b6040516100829190610644565b60405180910390f35b34801561009757600080fd5b506100a0610235565b6040516100ad9190610678565b60405180910390f35b3480156100c257600080fd5b506100dd60048036038101906100d891906106bf565b61023b565b005b600154341015610124576040517f08c379a000000000000000000000000000000000000000000000000000000000815260040161011b90610749565b60405180910390fd5b60008060009054906101000a900473ffffffffffffffffffffffffffffffffffffffff1673ffffffffffffffffffffffffffffffffffffffff166108fc349081150290604051600060405180830381858888f193505050509050806101be576040517f08c379a00000000000000000000000000000000000000000000000000000000081526004016101b5906107b5565b60405180910390fd5b7f0be5e4b6189aae8ce0553fdd29a955fa8af733c3108aa9e3b9539708a9866ebb88878c888b8e8a8a8a6040516101fd99989796959493929190610843565b60405180910390a150505050505050505050565b60008054906101000a900473ffffffffffffffffffffffffffffffffffffffff1681565b60015481565b60008054906101000a900473ffffffffffffffffffffffffffffffffffffffff1673ffffffffffffffffffffffffffffffffffffffff163373ffffffffffffffffffffffffffffffffffffffff16146102c9576040517f08c379a00000000000000000000000000000000000000000000000000000000081526004016102c090610954565b60405180910390fd5b8060018190555050565b6000604051905090565b600080fd5b600080fd5b600080fd5b600080fd5b6000601f19601f8301169050919050565b7f4e487b7100000000000000000000000000000000000000000000000000000000600052604160045260246000fd5b61033a826102f1565b810181811067ffffffffffffffff8211171561035957610358610302565b5b80604052505050565b600061036c6102d3565b90506103788282610331565b919050565b600067ffffffffffffffff82111561039857610397610302565b5b6103a1826102f1565b9050602081019050919050565b82818337600083830152505050565b60006103d06103cb8461037d565b610362565b9050828152602081018484840111156103ec576103eb6102ec565b5b6103f78482856103ae565b509392505050565b600082601f830112610414576104136102e7565b5b81356104248482602086016103bd565b91505092915050565b600073ffffffffffffffffffffffffffffffffffffffff82169050919050565b60006104588261042d565b9050919050565b6104688161044d565b811461047357600080fd5b50565b6000813590506104858161045f565b92915050565b60008060008060008060008060006101208a8c0312156104ae576104ad6102dd565b5b60008a013567ffffffffffffffff8111156104cc576104cb6102e2565b5b6104d88c828d016103ff565b99505060208a013567ffffffffffffffff8111156104f9576104f86102e2565b5b6105058c828d016103ff565b98505060408a013567ffffffffffffffff811115610526576105256102e2565b5b6105328c828d016103ff565b97505060608a013567ffffffffffffffff811115610553576105526102e2565b5b61055f8c828d016103ff565b96505060808a013567ffffffffffffffff8111156105805761057f6102e2565b5b61058c8c828d016103ff565b95505060a08a013567ffffffffffffffff8111156105ad576105ac6102e2565b5b6105b98c828d016103ff565b94505060c08a013567ffffffffffffffff8111156105da576105d96102e2565b5b6105e68c828d016103ff565b93505060e08a013567ffffffffffffffff811115610607576106066102e2565b5b6106138c828d016103ff565b9250506101006106258c828d01610476565b9150509295985092959850929598565b61063e8161044d565b82525050565b60006020820190506106596000830184610635565b92915050565b6000819050919050565b6106728161065f565b82525050565b600060208201905061068d6000830184610669565b92915050565b61069c8161065f565b81146106a757600080fd5b50565b6000813590506106b981610693565b92915050565b6000602082840312156106d5576106d46102dd565b5b60006106e3848285016106aa565b91505092915050565b600082825260208201905092915050565b7f56616c7565000000000000000000000000000000000000000000000000000000600082015250565b60006107336005836106ec565b915061073e826106fd565b602082019050919050565b6000602082019050818103600083015261076281610726565b9050919050565b7f4661696c656420746f2073656e64204574686572000000000000000000000000600082015250565b600061079f6014836106ec565b91506107aa82610769565b602082019050919050565b600060208201905081810360008301526107ce81610792565b9050919050565b600081519050919050565b60005b838110156107fe5780820151818401526020810190506107e3565b60008484015250505050565b6000610815826107d5565b61081f81856106ec565b935061082f8185602086016107e0565b610838816102f1565b840191505092915050565b600061012082019050818103600083015261085e818c61080a565b90508181036020830152610872818b61080a565b90508181036040830152610886818a61080a565b9050818103606083015261089a818961080a565b905081810360808301526108ae818861080a565b905081810360a08301526108c2818761080a565b905081810360c08301526108d6818661080a565b905081810360e08301526108ea818561080a565b90506108fa610100830184610635565b9a9950505050505050505050565b7f4e6f7420417574686f72697a6564000000000000000000000000000000000000600082015250565b600061093e600e836106ec565b915061094982610908565b602082019050919050565b6000602082019050818103600083015261096d81610931565b905091905056fea2646970667358221220b5f74c6717d7e40ecb373a27ac874277ff21e7ddb968f921a7d4ab94a12ee74e64736f6c63430008110033",
  "immutableReferences": {},
  "source": "// SPDX-License-Identifier: MIT\npragma solidity 0.8.17;\n\ncontract Certification {\n    address public owner;\n    uint public price;\n\n    constructor(uint _price) {\n        owner = msg.sender;\n        price=_price;\n\n    }\n    function ChangePrice(uint _price) public{\n        require(msg.sender==owner,\"Not Authorized\");\n        price=_price;\n    }\n\n    struct Diplome {\n        string nom;\n        string prenom;\n        string intitule;\n        string etablissementHash;\n        string documentHash;\n        string version;\n        string expiration;\n        string diplomeType;\n        address signataire;\n\n    }\n    function NouveauDiplome(\n        string memory _intitule,\n        string memory _documentHash,\n        string memory _nom,\n        string memory _etablissementHash,\n        string memory _prenom,\n        string memory _version,\n        string memory _expiration,\n        string memory _diplomeType,\n        address  _signataire\n    ) public payable {\n       \n        require(msg.value >= price, \"Value\");\n        bool sent =  payable(owner).send(msg.value);\n        require(sent, \"Failed to send Ether\");\n\n        // diplomes_keys.push(_etudiantHash);\n\n        // Diplomes[_etudiantHash] = Diplome({\n        //     intitule: _intitule,\n        //     etablissement: _etablissement,\n        //     etablissementHash: _etablissementHash,\n        //     documentHash: _documentHash,\n        //     documentLink: _documentLink,\n        //     nom: _nom,\n        //     prenom: _prenom,\n        //     etudiantHash: _etudiantHash\n        // });\n        emit EventCertification(\n            _nom,\n            _prenom,\n            _intitule,\n            _version,\n            _etablissementHash,\n            _documentHash,\n            _expiration,\n            _diplomeType,\n            _signataire\n        );\n    }\n\n    event EventCertification(\n        string Nom,\n        string Prenom,\n        string Intitule,\n        string Version,\n        string EtablissementHash,\n        string DocumentHash,\n        string Expiration,\n        string Type,\n        address Signataire\n    );\n \n}\n",
  "sourcePath": "/Users/naim/Code/diplomy/web3/contracts/Certification.sol",
  "compiler": {
    "name": "solc",
    "version": "0.8.17+commit.8df45f5f.Emscripten.clang"
  },
  "schemaVersion": "3.4.7",
  "updatedAt": "2022-10-05T21:58:02.701Z",
  "networkType": "ethereum",
  "devdoc": {
    "kind": "dev",
    "methods": {},
    "version": 1
  },
  "userdoc": {
    "kind": "user",
    "methods": {},
    "version": 1
  }
}