{
  "contractName": "Certification",
  "abi": [
    {
      "anonymous": false,
      "inputs": [
        {
          "indexed": false,
          "internalType": "string",
          "name": "Nom",
          "type": "string"
        },
        {
          "indexed": false,
          "internalType": "string",
          "name": "Prenom",
          "type": "string"
        },
        {
          "indexed": false,
          "internalType": "string",
          "name": "Intitule",
          "type": "string"
        },
        {
          "indexed": false,
          "internalType": "string",
          "name": "Version",
          "type": "string"
        },
        {
          "indexed": false,
          "internalType": "string",
          "name": "DocumentHash",
          "type": "string"
        },
        {
          "indexed": false,
          "internalType": "address",
          "name": "Signataire",
          "type": "address"
        }
      ],
      "name": "EventCertification",
      "type": "event"
    },
    {
      "inputs": [
        {
          "internalType": "string",
          "name": "_intitule",
          "type": "string"
        },
        {
          "internalType": "string",
          "name": "_documentHash",
          "type": "string"
        },
        {
          "internalType": "string",
          "name": "_nom",
          "type": "string"
        },
        {
          "internalType": "string",
          "name": "_prenom",
          "type": "string"
        },
        {
          "internalType": "string",
          "name": "_version",
          "type": "string"
        },
        {
          "internalType": "address",
          "name": "_signataire",
          "type": "address"
        }
      ],
      "name": "NouveauDiplome",
      "outputs": [],
      "stateMutability": "nonpayable",
      "type": "function"
    }
  ],
  "bytecode": "0x608060405234801561001057600080fd5b506104ae806100206000396000f3fe608060405234801561001057600080fd5b506004361061002b5760003560e01c80639547961514610030575b600080fd5b61004a6004803603810190610045919061024d565b61004c565b005b7f906deb3f1dc578529bd4576d1d8d4815f6d411e2222bbaf4b17da316a7754a21848488858986604051610085969594939291906103f4565b60405180910390a1505050505050565b6000604051905090565b600080fd5b600080fd5b600080fd5b600080fd5b6000601f19601f8301169050919050565b7f4e487b7100000000000000000000000000000000000000000000000000000000600052604160045260246000fd5b6100fc826100b3565b810181811067ffffffffffffffff8211171561011b5761011a6100c4565b5b80604052505050565b600061012e610095565b905061013a82826100f3565b919050565b600067ffffffffffffffff82111561015a576101596100c4565b5b610163826100b3565b9050602081019050919050565b82818337600083830152505050565b600061019261018d8461013f565b610124565b9050828152602081018484840111156101ae576101ad6100ae565b5b6101b9848285610170565b509392505050565b600082601f8301126101d6576101d56100a9565b5b81356101e684826020860161017f565b91505092915050565b600073ffffffffffffffffffffffffffffffffffffffff82169050919050565b600061021a826101ef565b9050919050565b61022a8161020f565b811461023557600080fd5b50565b60008135905061024781610221565b92915050565b60008060008060008060c0878903121561026a5761026961009f565b5b600087013567ffffffffffffffff811115610288576102876100a4565b5b61029489828a016101c1565b965050602087013567ffffffffffffffff8111156102b5576102b46100a4565b5b6102c189828a016101c1565b955050604087013567ffffffffffffffff8111156102e2576102e16100a4565b5b6102ee89828a016101c1565b945050606087013567ffffffffffffffff81111561030f5761030e6100a4565b5b61031b89828a016101c1565b935050608087013567ffffffffffffffff81111561033c5761033b6100a4565b5b61034889828a016101c1565b92505060a061035989828a01610238565b9150509295509295509295565b600081519050919050565b600082825260208201905092915050565b60005b838110156103a0578082015181840152602081019050610385565b60008484015250505050565b60006103b782610366565b6103c18185610371565b93506103d1818560208601610382565b6103da816100b3565b840191505092915050565b6103ee8161020f565b82525050565b600060c082019050818103600083015261040e81896103ac565b9050818103602083015261042281886103ac565b9050818103604083015261043681876103ac565b9050818103606083015261044a81866103ac565b9050818103608083015261045e81856103ac565b905061046d60a08301846103e5565b97965050505050505056fea26469706673582212206f2d912901be03edb054cee718363a4cde87d42ca47889a260d3e5f104a2a24064736f6c63430008110033",
  "immutableReferences": {},
  "source": "// SPDX-License-Identifier: MIT\npragma solidity 0.8.17;\n\ncontract Certification {\n    struct Diplome {\n        string nom;\n        string prenom;\n        string intitule;\n        string documentHash;\n        string version;\n        address signataire;\n\n    }\n    function NouveauDiplome(\n        string memory _intitule,\n        string memory _documentHash,\n        string memory _nom,\n        string memory _prenom,\n        string memory _version,\n        address  _signataire\n    ) public {\n        // diplomes_keys.push(_etudiantHash);\n        // Diplomes[_etudiantHash] = Diplome({\n        //     intitule: _intitule,\n        //     etablissement: _etablissement,\n        //     etablissementHash: _etablissementHash,\n        //     documentHash: _documentHash,\n        //     documentLink: _documentLink,\n        //     nom: _nom,\n        //     prenom: _prenom,\n        //     etudiantHash: _etudiantHash\n        // });\n        emit EventCertification(\n            _nom,\n            _prenom,\n            _intitule,\n            _version,\n            _documentHash,\n            _signataire\n        );\n    }\n\n    event EventCertification(\n        string Nom,\n        string Prenom,\n        string Intitule,\n        string Version,\n        string DocumentHash,\n        address Signataire\n    );\n\n    // function ObtenirDiplome(string memory _hash)\n    //     public\n    //     view\n    //     returns (Diplome memory)\n    // {\n    //     return Diplomes[_hash];\n    // }\n\n    // function NombreTotalDeDiplome() public view returns (uint256) {\n    //     return diplomes_keys.length;\n    // }\n\n    // function NombreDeDiplomeParEtablissement(string memory _etablissementHash)\n    //     public\n    //     view\n    //     returns (uint256)\n    // {\n    //     uint256 nombre = 0;\n    //     for (uint256 i = 0; i < diplomes_keys.length; i++) {\n    //         if (\n    //             keccak256(\n    //                 bytes(Diplomes[diplomes_keys[i]].etablissementHash)\n    //             ) == keccak256(bytes(_etablissementHash))\n    //         ) {\n    //             nombre++;\n    //         }\n    //     }\n\n    //     return nombre;\n    // }\n}\n",
  "sourcePath": "/Users/naim/Code/diplomy/web3/contracts/Certification.sol",
  "compiler": {
    "name": "solc",
    "version": "0.8.17+commit.8df45f5f.Emscripten.clang"
  },
  "schemaVersion": "3.4.7",
  "updatedAt": "2022-09-30T14:38:00.662Z",
  "networkType": "ethereum",
  "devdoc": {
    "kind": "dev",
    "methods": {},
    "version": 1
  },
  "userdoc": {
    "kind": "user",
    "methods": {},
    "version": 1
  }
}