{
  "contractName": "Certification",
  "abi": [
    {
      "anonymous": false,
      "inputs": [
        {
          "indexed": false,
          "internalType": "string",
          "name": "Nom",
          "type": "string"
        },
        {
          "indexed": false,
          "internalType": "string",
          "name": "Prenom",
          "type": "string"
        },
        {
          "indexed": false,
          "internalType": "string",
          "name": "Intitule",
          "type": "string"
        },
        {
          "indexed": false,
          "internalType": "string",
          "name": "Version",
          "type": "string"
        },
        {
          "indexed": false,
          "internalType": "string",
          "name": "EtablissementHash",
          "type": "string"
        },
        {
          "indexed": false,
          "internalType": "string",
          "name": "DocumentHash",
          "type": "string"
        },
        {
          "indexed": false,
          "internalType": "string",
          "name": "Expiration",
          "type": "string"
        },
        {
          "indexed": false,
          "internalType": "string",
          "name": "Type",
          "type": "string"
        },
        {
          "indexed": false,
          "internalType": "address",
          "name": "Signataire",
          "type": "address"
        }
      ],
      "name": "EventCertification",
      "type": "event"
    },
    {
      "inputs": [],
      "name": "Test",
      "outputs": [],
      "stateMutability": "nonpayable",
      "type": "function"
    },
    {
      "inputs": [
        {
          "internalType": "string",
          "name": "_intitule",
          "type": "string"
        },
        {
          "internalType": "string",
          "name": "_documentHash",
          "type": "string"
        },
        {
          "internalType": "string",
          "name": "_nom",
          "type": "string"
        },
        {
          "internalType": "string",
          "name": "_etablissementHash",
          "type": "string"
        },
        {
          "internalType": "string",
          "name": "_prenom",
          "type": "string"
        },
        {
          "internalType": "string",
          "name": "_version",
          "type": "string"
        },
        {
          "internalType": "string",
          "name": "_expiration",
          "type": "string"
        },
        {
          "internalType": "string",
          "name": "_diplomeType",
          "type": "string"
        },
        {
          "internalType": "address",
          "name": "_signataire",
          "type": "address"
        }
      ],
      "name": "NouveauDiplome",
      "outputs": [],
      "stateMutability": "nonpayable",
      "type": "function"
    }
  ],
  "bytecode": "0x608060405234801561001057600080fd5b506105a0806100206000396000f3fe608060405234801561001057600080fd5b50600436106100365760003560e01c80633b22b2d31461003b578063a163a62414610057575b600080fd5b6100556004803603810190610050919061026d565b610061565b005b61005f6100b3565b005b7f0be5e4b6189aae8ce0553fdd29a955fa8af733c3108aa9e3b9539708a9866ebb87868b878a8d8989896040516100a0999897969594939291906104a5565b60405180910390a1505050505050505050565b565b6000604051905090565b600080fd5b600080fd5b600080fd5b600080fd5b6000601f19601f8301169050919050565b7f4e487b7100000000000000000000000000000000000000000000000000000000600052604160045260246000fd5b61011c826100d3565b810181811067ffffffffffffffff8211171561013b5761013a6100e4565b5b80604052505050565b600061014e6100b5565b905061015a8282610113565b919050565b600067ffffffffffffffff82111561017a576101796100e4565b5b610183826100d3565b9050602081019050919050565b82818337600083830152505050565b60006101b26101ad8461015f565b610144565b9050828152602081018484840111156101ce576101cd6100ce565b5b6101d9848285610190565b509392505050565b600082601f8301126101f6576101f56100c9565b5b813561020684826020860161019f565b91505092915050565b600073ffffffffffffffffffffffffffffffffffffffff82169050919050565b600061023a8261020f565b9050919050565b61024a8161022f565b811461025557600080fd5b50565b60008135905061026781610241565b92915050565b60008060008060008060008060006101208a8c0312156102905761028f6100bf565b5b60008a013567ffffffffffffffff8111156102ae576102ad6100c4565b5b6102ba8c828d016101e1565b99505060208a013567ffffffffffffffff8111156102db576102da6100c4565b5b6102e78c828d016101e1565b98505060408a013567ffffffffffffffff811115610308576103076100c4565b5b6103148c828d016101e1565b97505060608a013567ffffffffffffffff811115610335576103346100c4565b5b6103418c828d016101e1565b96505060808a013567ffffffffffffffff811115610362576103616100c4565b5b61036e8c828d016101e1565b95505060a08a013567ffffffffffffffff81111561038f5761038e6100c4565b5b61039b8c828d016101e1565b94505060c08a013567ffffffffffffffff8111156103bc576103bb6100c4565b5b6103c88c828d016101e1565b93505060e08a013567ffffffffffffffff8111156103e9576103e86100c4565b5b6103f58c828d016101e1565b9250506101006104078c828d01610258565b9150509295985092959850929598565b600081519050919050565b600082825260208201905092915050565b60005b83811015610451578082015181840152602081019050610436565b60008484015250505050565b600061046882610417565b6104728185610422565b9350610482818560208601610433565b61048b816100d3565b840191505092915050565b61049f8161022f565b82525050565b60006101208201905081810360008301526104c0818c61045d565b905081810360208301526104d4818b61045d565b905081810360408301526104e8818a61045d565b905081810360608301526104fc818961045d565b90508181036080830152610510818861045d565b905081810360a0830152610524818761045d565b905081810360c0830152610538818661045d565b905081810360e083015261054c818561045d565b905061055c610100830184610496565b9a995050505050505050505056fea264697066735822122021b0272e28a984d81fec28f287e096be0491aac43d754ea5bc20d59b6009513b64736f6c63430008110033",
  "immutableReferences": {},
  "source": "// SPDX-License-Identifier: MIT\npragma solidity 0.8.17;\n\ncontract Certification {\n    struct Diplome {\n        string nom;\n        string prenom;\n        string intitule;\n        string etablissementHash;\n        string documentHash;\n        string version;\n        string expiration;\n        string diplomeType;\n        address signataire;\n\n    }\n    function Test()public{}\n    function NouveauDiplome(\n        string memory _intitule,\n        string memory _documentHash,\n        string memory _nom,\n        string memory _etablissementHash,\n        string memory _prenom,\n        string memory _version,\n        string memory _expiration,\n        string memory _diplomeType,\n        address  _signataire\n    ) public {\n        // diplomes_keys.push(_etudiantHash);\n        // Diplomes[_etudiantHash] = Diplome({\n        //     intitule: _intitule,\n        //     etablissement: _etablissement,\n        //     etablissementHash: _etablissementHash,\n        //     documentHash: _documentHash,\n        //     documentLink: _documentLink,\n        //     nom: _nom,\n        //     prenom: _prenom,\n        //     etudiantHash: _etudiantHash\n        // });\n        emit EventCertification(\n            _nom,\n            _prenom,\n            _intitule,\n            _version,\n            _etablissementHash,\n            _documentHash,\n            _expiration,\n            _diplomeType,\n            _signataire\n        );\n    }\n\n    event EventCertification(\n        string Nom,\n        string Prenom,\n        string Intitule,\n        string Version,\n        string EtablissementHash,\n        string DocumentHash,\n        string Expiration,\n        string Type,\n        address Signataire\n    );\n\n    // function ObtenirDiplome(string memory _hash)\n    //     public\n    //     view\n    //     returns (Diplome memory)\n    // {\n    //     return Diplomes[_hash];\n    // }\n\n    // function NombreTotalDeDiplome() public view returns (uint256) {\n    //     return diplomes_keys.length;\n    // }\n\n    // function NombreDeDiplomeParEtablissement(string memory _etablissementHash)\n    //     public\n    //     view\n    //     returns (uint256)\n    // {\n    //     uint256 nombre = 0;\n    //     for (uint256 i = 0; i < diplomes_keys.length; i++) {\n    //         if (\n    //             keccak256(\n    //                 bytes(Diplomes[diplomes_keys[i]].etablissementHash)\n    //             ) == keccak256(bytes(_etablissementHash))\n    //         ) {\n    //             nombre++;\n    //         }\n    //     }\n\n    //     return nombre;\n    // }\n}\n",
  "sourcePath": "/Users/naim/Code/diplomy/web3/contracts/Certification.sol",
  "compiler": {
    "name": "solc",
    "version": "0.8.17+commit.8df45f5f.Emscripten.clang"
  },
  "schemaVersion": "3.4.7",
  "updatedAt": "2022-09-30T19:08:05.483Z",
  "networkType": "ethereum",
  "devdoc": {
    "kind": "dev",
    "methods": {},
    "version": 1
  },
  "userdoc": {
    "kind": "user",
    "methods": {},
    "version": 1
  }
}