{
  "contractName": "Certification",
  "abi": [
    {
      "inputs": [
        {
          "internalType": "uint256",
          "name": "_price",
          "type": "uint256"
        }
      ],
      "stateMutability": "nonpayable",
      "type": "constructor"
    },
    {
      "anonymous": false,
      "inputs": [
        {
          "indexed": false,
          "internalType": "string",
          "name": "Nom",
          "type": "string"
        },
        {
          "indexed": false,
          "internalType": "string",
          "name": "Prenom",
          "type": "string"
        },
        {
          "indexed": false,
          "internalType": "string",
          "name": "Intitule",
          "type": "string"
        },
        {
          "indexed": false,
          "internalType": "string",
          "name": "Version",
          "type": "string"
        },
        {
          "indexed": false,
          "internalType": "string",
          "name": "EtablissementHash",
          "type": "string"
        },
        {
          "indexed": false,
          "internalType": "string",
          "name": "DocumentHash",
          "type": "string"
        },
        {
          "indexed": false,
          "internalType": "string",
          "name": "Expiration",
          "type": "string"
        },
        {
          "indexed": false,
          "internalType": "string",
          "name": "Type",
          "type": "string"
        },
        {
          "indexed": false,
          "internalType": "address",
          "name": "Signataire",
          "type": "address"
        }
      ],
      "name": "EventCertification",
      "type": "event"
    },
    {
      "inputs": [],
      "name": "owner",
      "outputs": [
        {
          "internalType": "address",
          "name": "",
          "type": "address"
        }
      ],
      "stateMutability": "view",
      "type": "function",
      "constant": true
    },
    {
      "inputs": [],
      "name": "price",
      "outputs": [
        {
          "internalType": "uint256",
          "name": "",
          "type": "uint256"
        }
      ],
      "stateMutability": "view",
      "type": "function",
      "constant": true
    },
    {
      "inputs": [
        {
          "internalType": "uint256",
          "name": "_price",
          "type": "uint256"
        }
      ],
      "name": "ChangePrice",
      "outputs": [],
      "stateMutability": "nonpayable",
      "type": "function"
    },
    {
      "inputs": [],
      "name": "Test",
      "outputs": [],
      "stateMutability": "nonpayable",
      "type": "function"
    },
    {
      "inputs": [
        {
          "internalType": "string",
          "name": "_intitule",
          "type": "string"
        },
        {
          "internalType": "string",
          "name": "_documentHash",
          "type": "string"
        },
        {
          "internalType": "string",
          "name": "_nom",
          "type": "string"
        },
        {
          "internalType": "string",
          "name": "_etablissementHash",
          "type": "string"
        },
        {
          "internalType": "string",
          "name": "_prenom",
          "type": "string"
        },
        {
          "internalType": "string",
          "name": "_version",
          "type": "string"
        },
        {
          "internalType": "string",
          "name": "_expiration",
          "type": "string"
        },
        {
          "internalType": "string",
          "name": "_diplomeType",
          "type": "string"
        },
        {
          "internalType": "address",
          "name": "_signataire",
          "type": "address"
        }
      ],
      "name": "NouveauDiplome",
      "outputs": [],
      "stateMutability": "payable",
      "type": "function",
      "payable": true
    }
  ],
  "bytecode": "0x608060405234801561001057600080fd5b50604051610ac4380380610ac4833981810160405281019061003291906100ba565b336000806101000a81548173ffffffffffffffffffffffffffffffffffffffff021916908373ffffffffffffffffffffffffffffffffffffffff16021790555080600181905550506100e7565b600080fd5b6000819050919050565b61009781610084565b81146100a257600080fd5b50565b6000815190506100b48161008e565b92915050565b6000602082840312156100d0576100cf61007f565b5b60006100de848285016100a5565b91505092915050565b6109ce806100f66000396000f3fe60806040526004361061004a5760003560e01c80633b22b2d31461004f5780638da5cb5b1461006b578063a035b1fe14610096578063a163a624146100c1578063fb92488b146100d8575b600080fd5b610069600480360381019061006491906104af565b610101565b005b34801561007757600080fd5b50610080610233565b60405161008d9190610668565b60405180910390f35b3480156100a257600080fd5b506100ab610257565b6040516100b8919061069c565b60405180910390f35b3480156100cd57600080fd5b506100d661025d565b005b3480156100e457600080fd5b506100ff60048036038101906100fa91906106e3565b61025f565b005b600154341015610146576040517f08c379a000000000000000000000000000000000000000000000000000000000815260040161013d9061076d565b60405180910390fd5b60008060009054906101000a900473ffffffffffffffffffffffffffffffffffffffff1673ffffffffffffffffffffffffffffffffffffffff166108fc349081150290604051600060405180830381858888f193505050509050806101e0576040517f08c379a00000000000000000000000000000000000000000000000000000000081526004016101d7906107d9565b60405180910390fd5b7f0be5e4b6189aae8ce0553fdd29a955fa8af733c3108aa9e3b9539708a9866ebb88878c888b8e8a8a8a60405161021f99989796959493929190610867565b60405180910390a150505050505050505050565b60008054906101000a900473ffffffffffffffffffffffffffffffffffffffff1681565b60015481565b565b60008054906101000a900473ffffffffffffffffffffffffffffffffffffffff1673ffffffffffffffffffffffffffffffffffffffff163373ffffffffffffffffffffffffffffffffffffffff16146102ed576040517f08c379a00000000000000000000000000000000000000000000000000000000081526004016102e490610978565b60405180910390fd5b8060018190555050565b6000604051905090565b600080fd5b600080fd5b600080fd5b600080fd5b6000601f19601f8301169050919050565b7f4e487b7100000000000000000000000000000000000000000000000000000000600052604160045260246000fd5b61035e82610315565b810181811067ffffffffffffffff8211171561037d5761037c610326565b5b80604052505050565b60006103906102f7565b905061039c8282610355565b919050565b600067ffffffffffffffff8211156103bc576103bb610326565b5b6103c582610315565b9050602081019050919050565b82818337600083830152505050565b60006103f46103ef846103a1565b610386565b9050828152602081018484840111156104105761040f610310565b5b61041b8482856103d2565b509392505050565b600082601f8301126104385761043761030b565b5b81356104488482602086016103e1565b91505092915050565b600073ffffffffffffffffffffffffffffffffffffffff82169050919050565b600061047c82610451565b9050919050565b61048c81610471565b811461049757600080fd5b50565b6000813590506104a981610483565b92915050565b60008060008060008060008060006101208a8c0312156104d2576104d1610301565b5b60008a013567ffffffffffffffff8111156104f0576104ef610306565b5b6104fc8c828d01610423565b99505060208a013567ffffffffffffffff81111561051d5761051c610306565b5b6105298c828d01610423565b98505060408a013567ffffffffffffffff81111561054a57610549610306565b5b6105568c828d01610423565b97505060608a013567ffffffffffffffff81111561057757610576610306565b5b6105838c828d01610423565b96505060808a013567ffffffffffffffff8111156105a4576105a3610306565b5b6105b08c828d01610423565b95505060a08a013567ffffffffffffffff8111156105d1576105d0610306565b5b6105dd8c828d01610423565b94505060c08a013567ffffffffffffffff8111156105fe576105fd610306565b5b61060a8c828d01610423565b93505060e08a013567ffffffffffffffff81111561062b5761062a610306565b5b6106378c828d01610423565b9250506101006106498c828d0161049a565b9150509295985092959850929598565b61066281610471565b82525050565b600060208201905061067d6000830184610659565b92915050565b6000819050919050565b61069681610683565b82525050565b60006020820190506106b1600083018461068d565b92915050565b6106c081610683565b81146106cb57600080fd5b50565b6000813590506106dd816106b7565b92915050565b6000602082840312156106f9576106f8610301565b5b6000610707848285016106ce565b91505092915050565b600082825260208201905092915050565b7f56616c7565000000000000000000000000000000000000000000000000000000600082015250565b6000610757600583610710565b915061076282610721565b602082019050919050565b600060208201905081810360008301526107868161074a565b9050919050565b7f4661696c656420746f2073656e64204574686572000000000000000000000000600082015250565b60006107c3601483610710565b91506107ce8261078d565b602082019050919050565b600060208201905081810360008301526107f2816107b6565b9050919050565b600081519050919050565b60005b83811015610822578082015181840152602081019050610807565b60008484015250505050565b6000610839826107f9565b6108438185610710565b9350610853818560208601610804565b61085c81610315565b840191505092915050565b6000610120820190508181036000830152610882818c61082e565b90508181036020830152610896818b61082e565b905081810360408301526108aa818a61082e565b905081810360608301526108be818961082e565b905081810360808301526108d2818861082e565b905081810360a08301526108e6818761082e565b905081810360c08301526108fa818661082e565b905081810360e083015261090e818561082e565b905061091e610100830184610659565b9a9950505050505050505050565b7f4e6f7420417574686f72697a6564000000000000000000000000000000000000600082015250565b6000610962600e83610710565b915061096d8261092c565b602082019050919050565b6000602082019050818103600083015261099181610955565b905091905056fea2646970667358221220a074e78b27b3e47c568d00d07464e45edeb6567cb918850e16776955d662dff864736f6c63430008110033",
  "immutableReferences": {},
  "source": "// SPDX-License-Identifier: MIT\npragma solidity 0.8.17;\n\ncontract Certification {\n    address public owner;\n    uint public price;\n\n    constructor(uint _price) {\n        owner = msg.sender;\n        price=_price;\n\n    }\n    function ChangePrice(uint _price) public{\n        require(msg.sender==owner,\"Not Authorized\");\n        price=_price;\n    }\n\n    struct Diplome {\n        string nom;\n        string prenom;\n        string intitule;\n        string etablissementHash;\n        string documentHash;\n        string version;\n        string expiration;\n        string diplomeType;\n        address signataire;\n\n    }\n    function Test()public{}\n    function NouveauDiplome(\n        string memory _intitule,\n        string memory _documentHash,\n        string memory _nom,\n        string memory _etablissementHash,\n        string memory _prenom,\n        string memory _version,\n        string memory _expiration,\n        string memory _diplomeType,\n        address  _signataire\n    ) public payable {\n       \n        require(msg.value >= price, \"Value\");\n        bool sent =  payable(owner).send(msg.value);\n        require(sent, \"Failed to send Ether\");\n\n        // diplomes_keys.push(_etudiantHash);\n\n        // Diplomes[_etudiantHash] = Diplome({\n        //     intitule: _intitule,\n        //     etablissement: _etablissement,\n        //     etablissementHash: _etablissementHash,\n        //     documentHash: _documentHash,\n        //     documentLink: _documentLink,\n        //     nom: _nom,\n        //     prenom: _prenom,\n        //     etudiantHash: _etudiantHash\n        // });\n        emit EventCertification(\n            _nom,\n            _prenom,\n            _intitule,\n            _version,\n            _etablissementHash,\n            _documentHash,\n            _expiration,\n            _diplomeType,\n            _signataire\n        );\n    }\n\n    event EventCertification(\n        string Nom,\n        string Prenom,\n        string Intitule,\n        string Version,\n        string EtablissementHash,\n        string DocumentHash,\n        string Expiration,\n        string Type,\n        address Signataire\n    );\n \n    // function ObtenirDiplome(string memory _hash)\n    //     public\n    //     view\n    //     returns (Diplome memory)\n    // {\n    //     return Diplomes[_hash];\n    // }\n\n    // function NombreTotalDeDiplome() public view returns (uint256) {\n    //     return diplomes_keys.length;\n    // }\n\n    // function NombreDeDiplomeParEtablissement(string memory _etablissementHash)\n    //     public\n    //     view\n    //     returns (uint256)\n    // {\n    //     uint256 nombre = 0;\n    //     for (uint256 i = 0; i < diplomes_keys.length; i++) {\n    //         if (\n    //             keccak256(\n    //                 bytes(Diplomes[diplomes_keys[i]].etablissementHash)\n    //             ) == keccak256(bytes(_etablissementHash))\n    //         ) {\n    //             nombre++;\n    //         }\n    //     }\n\n    //     return nombre;\n    // }\n}\n",
  "sourcePath": "/Users/naim/Code/diplomy/web3/contracts/Certification.sol",
  "compiler": {
    "name": "solc",
    "version": "0.8.17+commit.8df45f5f.Emscripten.clang"
  },
  "schemaVersion": "3.4.7",
  "updatedAt": "2022-10-01T16:34:21.004Z",
  "networkType": "ethereum",
  "devdoc": {
    "kind": "dev",
    "methods": {},
    "version": 1
  },
  "userdoc": {
    "kind": "user",
    "methods": {},
    "version": 1
  }
}