{
  "contractName": "Certification",
  "abi": [
    {
      "anonymous": false,
      "inputs": [
        {
          "indexed": false,
          "internalType": "string",
          "name": "Nom",
          "type": "string"
        },
        {
          "indexed": false,
          "internalType": "string",
          "name": "Prenom",
          "type": "string"
        },
        {
          "indexed": false,
          "internalType": "string",
          "name": "Intitule",
          "type": "string"
        },
        {
          "indexed": false,
          "internalType": "string",
          "name": "Version",
          "type": "string"
        },
        {
          "indexed": false,
          "internalType": "string",
          "name": "EtablissementHash",
          "type": "string"
        },
        {
          "indexed": false,
          "internalType": "string",
          "name": "DocumentHash",
          "type": "string"
        },
        {
          "indexed": false,
          "internalType": "string",
          "name": "Expiration",
          "type": "string"
        },
        {
          "indexed": false,
          "internalType": "string",
          "name": "Type",
          "type": "string"
        },
        {
          "indexed": false,
          "internalType": "string",
          "name": "Signataire",
          "type": "string"
        }
      ],
      "name": "EventCertification",
      "type": "event"
    },
    {
      "inputs": [],
      "name": "Test",
      "outputs": [],
      "stateMutability": "nonpayable",
      "type": "function"
    },
    {
      "inputs": [
        {
          "internalType": "string",
          "name": "_intitule",
          "type": "string"
        },
        {
          "internalType": "string",
          "name": "_documentHash",
          "type": "string"
        },
        {
          "internalType": "string",
          "name": "_nom",
          "type": "string"
        },
        {
          "internalType": "string",
          "name": "_etablissementHash",
          "type": "string"
        },
        {
          "internalType": "string",
          "name": "_prenom",
          "type": "string"
        },
        {
          "internalType": "string",
          "name": "_version",
          "type": "string"
        },
        {
          "internalType": "string",
          "name": "_expiration",
          "type": "string"
        },
        {
          "internalType": "string",
          "name": "_diplomeType",
          "type": "string"
        },
        {
          "internalType": "string",
          "name": "_signataire",
          "type": "string"
        }
      ],
      "name": "NouveauDiplome",
      "outputs": [],
      "stateMutability": "nonpayable",
      "type": "function"
    }
  ],
  "bytecode": "0x608060405234801561001057600080fd5b50610556806100206000396000f3fe608060405234801561001057600080fd5b50600436106100365760003560e01c80630b5eb4261461003b578063a163a62414610057575b600080fd5b6100556004803603810190610050919061020f565b610061565b005b61005f6100b3565b005b7fb3cd728e7dbf45d5c9b66fafb7948fb8edc3d5abaffd2fbb8df8412e69f4b2c787868b878a8d8989896040516100a099989796959493929190610454565b60405180910390a1505050505050505050565b565b6000604051905090565b600080fd5b600080fd5b600080fd5b600080fd5b6000601f19601f8301169050919050565b7f4e487b7100000000000000000000000000000000000000000000000000000000600052604160045260246000fd5b61011c826100d3565b810181811067ffffffffffffffff8211171561013b5761013a6100e4565b5b80604052505050565b600061014e6100b5565b905061015a8282610113565b919050565b600067ffffffffffffffff82111561017a576101796100e4565b5b610183826100d3565b9050602081019050919050565b82818337600083830152505050565b60006101b26101ad8461015f565b610144565b9050828152602081018484840111156101ce576101cd6100ce565b5b6101d9848285610190565b509392505050565b600082601f8301126101f6576101f56100c9565b5b813561020684826020860161019f565b91505092915050565b60008060008060008060008060006101208a8c031215610232576102316100bf565b5b60008a013567ffffffffffffffff8111156102505761024f6100c4565b5b61025c8c828d016101e1565b99505060208a013567ffffffffffffffff81111561027d5761027c6100c4565b5b6102898c828d016101e1565b98505060408a013567ffffffffffffffff8111156102aa576102a96100c4565b5b6102b68c828d016101e1565b97505060608a013567ffffffffffffffff8111156102d7576102d66100c4565b5b6102e38c828d016101e1565b96505060808a013567ffffffffffffffff811115610304576103036100c4565b5b6103108c828d016101e1565b95505060a08a013567ffffffffffffffff811115610331576103306100c4565b5b61033d8c828d016101e1565b94505060c08a013567ffffffffffffffff81111561035e5761035d6100c4565b5b61036a8c828d016101e1565b93505060e08a013567ffffffffffffffff81111561038b5761038a6100c4565b5b6103978c828d016101e1565b9250506101008a013567ffffffffffffffff8111156103b9576103b86100c4565b5b6103c58c828d016101e1565b9150509295985092959850929598565b600081519050919050565b600082825260208201905092915050565b60005b8381101561040f5780820151818401526020810190506103f4565b60008484015250505050565b6000610426826103d5565b61043081856103e0565b93506104408185602086016103f1565b610449816100d3565b840191505092915050565b600061012082019050818103600083015261046f818c61041b565b90508181036020830152610483818b61041b565b90508181036040830152610497818a61041b565b905081810360608301526104ab818961041b565b905081810360808301526104bf818861041b565b905081810360a08301526104d3818761041b565b905081810360c08301526104e7818661041b565b905081810360e08301526104fb818561041b565b9050818103610100830152610510818461041b565b90509a995050505050505050505056fea2646970667358221220968e6aa81bd7a67ef04c5ac5b0ce4241ae317eaaab1899eeb425b40d4aefff6e64736f6c63430008110033",
  "immutableReferences": {},
  "source": "// SPDX-License-Identifier: MIT\npragma solidity 0.8.17;\n\ncontract Certification {\n    struct Diplome {\n        string nom;\n        string prenom;\n        string intitule;\n        string etablissementHash;\n        string documentHash;\n        string version;\n        string expiration;\n        string diplomeType;\n        string signataire;\n\n    }\n    function Test()public{}\n    function NouveauDiplome(\n        string memory _intitule,\n        string memory _documentHash,\n        string memory _nom,\n        string memory _etablissementHash,\n        string memory _prenom,\n        string memory _version,\n        string memory _expiration,\n        string memory _diplomeType,\n        string memory  _signataire\n    ) public {\n        // diplomes_keys.push(_etudiantHash);\n        // Diplomes[_etudiantHash] = Diplome({\n        //     intitule: _intitule,\n        //     etablissement: _etablissement,\n        //     etablissementHash: _etablissementHash,\n        //     documentHash: _documentHash,\n        //     documentLink: _documentLink,\n        //     nom: _nom,\n        //     prenom: _prenom,\n        //     etudiantHash: _etudiantHash\n        // });\n        emit EventCertification(\n            _nom,\n            _prenom,\n            _intitule,\n            _version,\n            _etablissementHash,\n            _documentHash,\n            _expiration,\n            _diplomeType,\n            _signataire\n        );\n    }\n\n    event EventCertification(\n        string Nom,\n        string Prenom,\n        string Intitule,\n        string Version,\n        string EtablissementHash,\n        string DocumentHash,\n        string Expiration,\n        string Type,\n        string Signataire\n    );\n\n    // function ObtenirDiplome(string memory _hash)\n    //     public\n    //     view\n    //     returns (Diplome memory)\n    // {\n    //     return Diplomes[_hash];\n    // }\n\n    // function NombreTotalDeDiplome() public view returns (uint256) {\n    //     return diplomes_keys.length;\n    // }\n\n    // function NombreDeDiplomeParEtablissement(string memory _etablissementHash)\n    //     public\n    //     view\n    //     returns (uint256)\n    // {\n    //     uint256 nombre = 0;\n    //     for (uint256 i = 0; i < diplomes_keys.length; i++) {\n    //         if (\n    //             keccak256(\n    //                 bytes(Diplomes[diplomes_keys[i]].etablissementHash)\n    //             ) == keccak256(bytes(_etablissementHash))\n    //         ) {\n    //             nombre++;\n    //         }\n    //     }\n\n    //     return nombre;\n    // }\n}\n",
  "sourcePath": "/Users/naim/Code/diplomy/web3/contracts/Certification.sol",
  "compiler": {
    "name": "solc",
    "version": "0.8.17+commit.8df45f5f.Emscripten.clang"
  },
  "schemaVersion": "3.4.7",
  "updatedAt": "2022-09-30T16:51:23.103Z",
  "networkType": "ethereum",
  "devdoc": {
    "kind": "dev",
    "methods": {},
    "version": 1
  },
  "userdoc": {
    "kind": "user",
    "methods": {},
    "version": 1
  }
}