{
  "contractName": "Partenariat",
  "abi": [
    {
      "inputs": [
        {
          "internalType": "string[]",
          "name": "_partenaires",
          "type": "string[]"
        },
        {
          "internalType": "string[]",
          "name": "_formations_requises",
          "type": "string[]"
        },
        {
          "internalType": "string",
          "name": "_formation_aboutissante",
          "type": "string"
        },
        {
          "internalType": "string[]",
          "name": "_partenaires_name",
          "type": "string[]"
        },
        {
          "internalType": "string[]",
          "name": "_formations_requises_name",
          "type": "string[]"
        },
        {
          "internalType": "string",
          "name": "_formation_aboutissante_name",
          "type": "string"
        },
        {
          "internalType": "uint256",
          "name": "_price",
          "type": "uint256"
        }
      ],
      "stateMutability": "nonpayable",
      "type": "constructor"
    },
    {
      "anonymous": false,
      "inputs": [
        {
          "indexed": false,
          "internalType": "string[]",
          "name": "Partenaires",
          "type": "string[]"
        },
        {
          "indexed": false,
          "internalType": "string[]",
          "name": "FormationsRequises",
          "type": "string[]"
        },
        {
          "indexed": false,
          "internalType": "string",
          "name": "FormationAboutissante",
          "type": "string"
        }
      ],
      "name": "EventPartenariat",
      "type": "event"
    },
    {
      "inputs": [
        {
          "internalType": "string[]",
          "name": "_partenaires",
          "type": "string[]"
        },
        {
          "internalType": "string[]",
          "name": "_formations_requises",
          "type": "string[]"
        }
      ],
      "name": "check",
      "outputs": [
        {
          "internalType": "string",
          "name": "",
          "type": "string"
        }
      ],
      "stateMutability": "view",
      "type": "function"
    }
  ],
  "bytecode": "0x60806040523480156200001157600080fd5b506040516200138738038062001387833981810160405281019062000037919062000483565b86600090805190602001906200004f929190620000cc565b50856001908051906020019062000068929190620000cc565b5084600290816200007a919062000831565b50806003819055507f218243c5642ecdd58a63d29aed17503f20c11ff8eb9e85999c1cce6e86dadc57848484604051620000b79392919062000a8c565b60405180910390a15050505050505062000ade565b82805482825590600052602060002090810192821562000119579160200282015b828111156200011857825182908162000107919062000831565b5091602001919060010190620000ed565b5b5090506200012891906200012c565b5090565b5b8082111562000150576000818162000146919062000154565b506001016200012d565b5090565b50805462000162906200062a565b6000825580601f1062000176575062000197565b601f0160209004906000526020600020908101906200019691906200019a565b5b50565b5b80821115620001b55760008160009055506001016200019b565b5090565b6000604051905090565b600080fd5b600080fd5b600080fd5b6000601f19601f8301169050919050565b7f4e487b7100000000000000000000000000000000000000000000000000000000600052604160045260246000fd5b6200021d82620001d2565b810181811067ffffffffffffffff821117156200023f576200023e620001e3565b5b80604052505050565b600062000254620001b9565b905062000262828262000212565b919050565b600067ffffffffffffffff821115620002855762000284620001e3565b5b602082029050602081019050919050565b600080fd5b600080fd5b600067ffffffffffffffff821115620002be57620002bd620001e3565b5b620002c982620001d2565b9050602081019050919050565b60005b83811015620002f6578082015181840152602081019050620002d9565b60008484015250505050565b6000620003196200031384620002a0565b62000248565b9050828152602081018484840111156200033857620003376200029b565b5b62000345848285620002d6565b509392505050565b600082601f830112620003655762000364620001cd565b5b81516200037784826020860162000302565b91505092915050565b600062000397620003918462000267565b62000248565b90508083825260208201905060208402830185811115620003bd57620003bc62000296565b5b835b818110156200040b57805167ffffffffffffffff811115620003e657620003e5620001cd565b5b808601620003f589826200034d565b85526020850194505050602081019050620003bf565b5050509392505050565b600082601f8301126200042d576200042c620001cd565b5b81516200043f84826020860162000380565b91505092915050565b6000819050919050565b6200045d8162000448565b81146200046957600080fd5b50565b6000815190506200047d8162000452565b92915050565b600080600080600080600060e0888a031215620004a557620004a4620001c3565b5b600088015167ffffffffffffffff811115620004c657620004c5620001c8565b5b620004d48a828b0162000415565b975050602088015167ffffffffffffffff811115620004f857620004f7620001c8565b5b620005068a828b0162000415565b965050604088015167ffffffffffffffff8111156200052a5762000529620001c8565b5b620005388a828b016200034d565b955050606088015167ffffffffffffffff8111156200055c576200055b620001c8565b5b6200056a8a828b0162000415565b945050608088015167ffffffffffffffff8111156200058e576200058d620001c8565b5b6200059c8a828b0162000415565b93505060a088015167ffffffffffffffff811115620005c057620005bf620001c8565b5b620005ce8a828b016200034d565b92505060c0620005e18a828b016200046c565b91505092959891949750929550565b600081519050919050565b7f4e487b7100000000000000000000000000000000000000000000000000000000600052602260045260246000fd5b600060028204905060018216806200064357607f821691505b602082108103620006595762000658620005fb565b5b50919050565b60008190508160005260206000209050919050565b60006020601f8301049050919050565b600082821b905092915050565b600060088302620006c37fffffffffffffffffffffffffffffffffffffffffffffffffffffffffffffffff8262000684565b620006cf868362000684565b95508019841693508086168417925050509392505050565b6000819050919050565b6000620007126200070c620007068462000448565b620006e7565b62000448565b9050919050565b6000819050919050565b6200072e83620006f1565b620007466200073d8262000719565b84845462000691565b825550505050565b600090565b6200075d6200074e565b6200076a81848462000723565b505050565b5b8181101562000792576200078660008262000753565b60018101905062000770565b5050565b601f821115620007e157620007ab816200065f565b620007b68462000674565b81016020851015620007c6578190505b620007de620007d58562000674565b8301826200076f565b50505b505050565b600082821c905092915050565b60006200080660001984600802620007e6565b1980831691505092915050565b6000620008218383620007f3565b9150826002028217905092915050565b6200083c82620005f0565b67ffffffffffffffff811115620008585762000857620001e3565b5b6200086482546200062a565b6200087182828562000796565b600060209050601f831160018114620008a9576000841562000894578287015190505b620008a0858262000813565b86555062000910565b601f198416620008b9866200065f565b60005b82811015620008e357848901518255600182019150602085019450602081019050620008bc565b86831015620009035784890151620008ff601f891682620007f3565b8355505b6001600288020188555050505b505050505050565b600081519050919050565b600082825260208201905092915050565b6000819050602082019050919050565b600082825260208201905092915050565b60006200096282620005f0565b6200096e818562000944565b935062000980818560208601620002d6565b6200098b81620001d2565b840191505092915050565b6000620009a4838362000955565b905092915050565b6000602082019050919050565b6000620009c68262000918565b620009d2818562000923565b935083602082028501620009e68562000934565b8060005b8581101562000a28578484038952815162000a06858262000996565b945062000a1383620009ac565b925060208a01995050600181019050620009ea565b50829750879550505050505092915050565b600082825260208201905092915050565b600062000a5882620005f0565b62000a64818562000a3a565b935062000a76818560208601620002d6565b62000a8181620001d2565b840191505092915050565b6000606082019050818103600083015262000aa88186620009b9565b9050818103602083015262000abe8185620009b9565b9050818103604083015262000ad4818462000a4b565b9050949350505050565b6108998062000aee6000396000f3fe608060405234801561001057600080fd5b506004361061002b5760003560e01c8063c6fbfdfe14610030575b600080fd5b61004a600480360381019061004591906105e7565b610060565b60405161005791906106de565b60405180910390f35b60606000600190508351600080549050036101715760005b60008054905081101561016b5761014f6000828154811061009c5761009b610700565b5b9060005260206000200180546100b19061075e565b80601f01602080910402602001604051908101604052809291908181526020018280546100dd9061075e565b801561012a5780601f106100ff5761010080835404028352916020019161012a565b820191906000526020600020905b81548152906001019060200180831161010d57829003601f168201915b505050505086838151811061014257610141610700565b5b602002602001015161033e565b61015857600091505b8080610163906107c8565b915050610078565b50610176565b600090505b801561028b578251600180549050036102855760005b60018054905081101561027f57610263600182815481106101b0576101af610700565b5b9060005260206000200180546101c59061075e565b80601f01602080910402602001604051908101604052809291908181526020018280546101f19061075e565b801561023e5780601f106102135761010080835404028352916020019161023e565b820191906000526020600020905b81548152906001019060200180831161022157829003601f168201915b505050505085838151811061025657610255610700565b5b602002602001015161033e565b61026c57600091505b8080610277906107c8565b91505061018c565b5061028a565b600090505b5b8015610324576002805461029e9061075e565b80601f01602080910402602001604051908101604052809291908181526020018280546102ca9061075e565b80156103175780601f106102ec57610100808354040283529160200191610317565b820191906000526020600020905b8154815290600101906020018083116102fa57829003601f168201915b5050505050915050610338565b604051806020016040528060008152509150505b92915050565b600081604051602001610351919061084c565b6040516020818303038152906040528051906020012083604051602001610378919061084c565b604051602081830303815290604052805190602001200361039c57600190506103a1565b600090505b92915050565b6000604051905090565b600080fd5b600080fd5b600080fd5b6000601f19601f8301169050919050565b7f4e487b7100000000000000000000000000000000000000000000000000000000600052604160045260246000fd5b610409826103c0565b810181811067ffffffffffffffff82111715610428576104276103d1565b5b80604052505050565b600061043b6103a7565b90506104478282610400565b919050565b600067ffffffffffffffff821115610467576104666103d1565b5b602082029050602081019050919050565b600080fd5b600080fd5b600067ffffffffffffffff82111561049d5761049c6103d1565b5b6104a6826103c0565b9050602081019050919050565b82818337600083830152505050565b60006104d56104d084610482565b610431565b9050828152602081018484840111156104f1576104f061047d565b5b6104fc8482856104b3565b509392505050565b600082601f830112610519576105186103bb565b5b81356105298482602086016104c2565b91505092915050565b60006105456105408461044c565b610431565b9050808382526020820190506020840283018581111561056857610567610478565b5b835b818110156105af57803567ffffffffffffffff81111561058d5761058c6103bb565b5b80860161059a8982610504565b8552602085019450505060208101905061056a565b5050509392505050565b600082601f8301126105ce576105cd6103bb565b5b81356105de848260208601610532565b91505092915050565b600080604083850312156105fe576105fd6103b1565b5b600083013567ffffffffffffffff81111561061c5761061b6103b6565b5b610628858286016105b9565b925050602083013567ffffffffffffffff811115610649576106486103b6565b5b610655858286016105b9565b9150509250929050565b600081519050919050565b600082825260208201905092915050565b60005b8381101561069957808201518184015260208101905061067e565b60008484015250505050565b60006106b08261065f565b6106ba818561066a565b93506106ca81856020860161067b565b6106d3816103c0565b840191505092915050565b600060208201905081810360008301526106f881846106a5565b905092915050565b7f4e487b7100000000000000000000000000000000000000000000000000000000600052603260045260246000fd5b7f4e487b7100000000000000000000000000000000000000000000000000000000600052602260045260246000fd5b6000600282049050600182168061077657607f821691505b6020821081036107895761078861072f565b5b50919050565b7f4e487b7100000000000000000000000000000000000000000000000000000000600052601160045260246000fd5b6000819050919050565b60006107d3826107be565b91507fffffffffffffffffffffffffffffffffffffffffffffffffffffffffffffffff82036108055761080461078f565b5b600182019050919050565b600081905092915050565b60006108268261065f565b6108308185610810565b935061084081856020860161067b565b80840191505092915050565b6000610858828461081b565b91508190509291505056fea26469706673582212203cb15553f3c0265a68bfb37eb5f834e9d2337b24882a03d180d05925447e33e264736f6c63430008110033",
  "immutableReferences": {},
  "source": "// SPDX-License-Identifier: MIT\npragma solidity 0.8.17;\n\ncontract Partenariat {\n    string[] internal  partenaires;\n    string[] internal formations_requises;\n    string internal formation_aboutissante;\n    uint price;\n\n    constructor(string[] memory _partenaires,string[] memory _formations_requises,string memory _formation_aboutissante,string[] memory _partenaires_name,string[] memory _formations_requises_name,string memory _formation_aboutissante_name,uint _price){\n       partenaires=_partenaires;\n       formations_requises=_formations_requises;\n       formation_aboutissante=_formation_aboutissante;\n       price=_price;\n       \n       emit EventPartenariat(\n        _partenaires_name,\n        _formations_requises_name,\n        _formation_aboutissante_name\n       );\n\n    }\n\n// function getInfo()public view returns(string[] memory,string[] memory,string memory){\n//   return (partenaires,formations_requises,formation_aboutissante);\n// }\n  function comparingString(string memory _s1,string memory _s2)pure internal returns(bool){\n      if (keccak256(abi.encodePacked(_s1)) == keccak256(abi.encodePacked(_s2))) {\n        return true;\n  }\n  else {\n    return false;\n  }\n \n}\n    function check(string[] memory _partenaires,string[] memory _formations_requises) public view returns(string memory) {\n      bool _check=true;\n         if(partenaires.length ==_partenaires.length){\n               for (uint i = 0; i < partenaires.length; i++) {\n                  if(!comparingString(partenaires[i], _partenaires[i])){\n                       _check=false;\n                  }\n               }\n\n              \n         }else{\n            _check=false;\n         }\n       if(_check){\n             if(formations_requises.length ==_formations_requises.length){\n               for (uint i = 0; i < formations_requises.length; i++) {\n                  if(!comparingString(formations_requises[i], _formations_requises[i])){\n                       _check=false;\n                  }\n               }\n          \n         }else{\n            _check=false;\n         }\n\n\n     \n    }\n\n    if(_check){\n      return formation_aboutissante;\n    \n    }else{\n      return \"\";\n    }\n\n  }\n\n    event EventPartenariat(\n     string[] Partenaires,\n     string[] FormationsRequises,\n     string  FormationAboutissante\n    );\n}\n",
  "sourcePath": "/Users/naim/Code/diplomy/web3/contracts/Partenariat.sol",
  "compiler": {
    "name": "solc",
    "version": "0.8.17+commit.8df45f5f.Emscripten.clang"
  },
  "schemaVersion": "3.4.7",
  "updatedAt": "2022-10-05T21:58:00.271Z",
  "devdoc": {
    "kind": "dev",
    "methods": {},
    "version": 1
  },
  "userdoc": {
    "kind": "user",
    "methods": {},
    "version": 1
  }
}